:020000040800F2
:10000000D05C00204503000883390008DB3300087A
:10001000813900081F160008DB43000800000000BB
:100020000000000000000000000000008102000845
:100030002116000800000000DD020008C53A000893
:100040005F0300085F0300085F0300085F03000808
:100050005F0300085F0300085F0300085F030008F8
:100060005F0300085F0300085F0300085F030008E8
:100070005F0300085F0300085F0300085F030008D8
:100080005F0300085F0300085F0300085F030008C8
:100090005F0300085F0300085F0300085F030008B8
:1000A0005F0300085F0300085F0300085F030008A8
:1000B0005F0300085F0300085F0300085F03000898
:1000C0005F0300085F0300085F0300085F03000888
:1000D0005F0300085F0300085F0300085F03000878
:1000E0005F0300085F0300085F0300085F03000868
:1000F0005F0300085F0300085F0300085F03000858
:100100005F0300085F0300085F0300085F03000847
:100110005F0300085F030008A13B00085F030008BD
:100120005F0300085F0300085F0300085F03000827
:100130005F0300085F0300085F0300085F03000817
:100140005F0300085F0300085F0300085F03000807
:100150005F0300085F0300085F0300085F030008F7
:100160005F0300085F0300085F0300085F030008E7
:100170005F0300085F0300085F0300080000000041
:100180005F0300085F0300085F0300085F030008C7
:100190005F0300085F0300085F0300085F030008B7
:1001A0005F0300085F0300085F0300085F030008A7
:1001B0005F0300085F0300085F0300085F03000897
:1001C0005F0300085F03000800F002F800F049F840
:1001D0000AA090E8000C82448344AAF10107DA45A2
:1001E00001D100F03EF8AFF2090EBAE80F0013F0AB
:1001F000010F18BFFB1A43F00103184708660000FF
:1002000028660000103A24BF78C878C1FAD852078F
:1002100024BF30C830C144BF04680C607047000080
:100220000023002400250026103A28BF78C1FBD8FF
:10023000520728BF30C148BF0B607047662906F0DF
:100240000982002070471FB506F0FFF900F0B6FCE8
:1002500004000020002106F06BF9E0601FBD10B51E
:1002600010BD00F0ABFD1146FFF7EDFF04F0E6F81E
:1002700000F0C9FD03B4FFF7F2FF03BC00F000FE7D
:100280002D4B19680868B0E8F04F80F30988BFF378
:100290006F8F4FF0000080F311887047000000005E
:1002A00008480068006880F308884FF0000080F379
:1002B000148862B661B6BFF34F8FBFF36F8F00DF54
:1002C00000BF00BF08ED00E0DFF80C00016841F45A
:1002D00070010160704700BF88ED00E0EFF3098016
:1002E000BFF36F8F144B1A681EF0100F08BF20ED7C
:1002F000108A20E9F04F106009B44FF0500072B638
:1003000080F31188BFF34F8FBFF36F8F62B605F094
:1003100005FA4FF0000080F3118809BC19680868DD
:10032000B0E8F04F1EF0100F08BFB0EC108A80F359
:100330000988BFF36F8F704730000020EFF305800E
:10034000704700000948804709480047FEE7FEE77C
:10035000FEE7FEE7FEE7FEE7FEE7FEE7FEE7FEE775
:1003600004480549054A064B70470000913B0008C8
:10037000C9010008D0560020D05C0020D0580020D1
:10038000D058002053EA020C00F069802DE9F04BB0
:100390004FF00006002B1FBFB3FA83F503FA05F4F4
:1003A00024FA05F65E4012BF1643B2FA82F502FA4D
:1003B00005F4C5F120051EBF22FA05FC44EA0C0431
:1003C000203556EA044C4FEA144418BF641C4FF021
:1003D00000084FF00009904271EB030C39D300295B
:1003E00019BFB1FA81F701FA07F6B0FA80F700FAFF
:1003F00007F6C7F120071EBF20FA07FC46EA0C06E5
:100400002037B6FBF4FCA7EB0507103F07F01F0BE6
:10041000CBF120060CFA0BFB2CFA06F644BFB346D0
:100420000026202FA4BF5E464FF0000B5BEA060CAF
:1004300008BF4FF0010B19EB0B09ABFB027C48EB3B
:100440000608C01B06FB02CC0BFB03CC71EB0C01B6
:10045000C1E70B46024641464846BDE8F08B13B55E
:100460004FF000004FF00001AFF30080BDE81C40EA
:10047000704700000FB47CB50C0009AA009001D0B1
:100480002044401E084B7B4469460190089800F0C8
:1004900020FB05461CB10020694600F02DFB2846D4
:1004A0007CBC5DF814FB0000790600002DE9F047E4
:1004B0004FF0000A89460446C0F820A02046E168B3
:1004C0008847002876D0252806D0D4E90121904716
:1004D000206A401C2062F1E7E16820460025884739
:1004E000C4F81CA006460027C4F818A02A2E09D07C
:1004F000304603F09CFF38B304EB8708303EC8F861
:10050000186019E059F8041B204604EB870291613A
:10051000E1688847012F064618D1E069002820DAF3
:1005200025F020051DE0D8F8180000EB800006EB50
:1005300040003038C8F818002046E1688847064671
:1005400003F075FF0028EED1012F0AD02E2E08D11E
:100550002046E16888477F1C0646022F45F02005AB
:10056000C4DBA069002803DA404245F00105A06120
:10057000E80701D025F01005B6B1A6F14100192811
:1005800002D8203645F400654A46314620462560AB
:100590004D46FFF753FE58B1012806D0ED1D25F05A
:1005A000070000F1080989E704E005F1040985E77F
:1005B00030468AE7206ABDE8F087032A40F230809F
:1005C00010F0030C00F0158011F8013BBCF1020F94
:1005D000624498BF11F801CB00F8013B38BF11F815
:1005E000013BA2F1040298BF00F801CB38BF00F82C
:1005F000013B11F0030300F08C82083AC0F0088040
:1006000051F8043B083A51F804CBA0E80810F5E78C
:10061000121D5CBF51F8043B40F8043BAFF300806F
:10062000D20724BF11F8013B11F801CB48BF11F8E4
:10063000012B24BF00F8013B00F801CB48BF00F8B4
:10064000012B704702F0FF0343EA032242EA024211
:1006500000F093BA4FF0000200B513469446964658
:10066000203922BFA0E80C50A0E80C50B1F12001C5
:10067000BFF4F7AF090728BFA0E80C5048BF0CC073
:100680005DF804EB890028BF40F8042B08BF7047D1
:1006900048BF20F8022B11F0804F18BF00F8012B43
:1006A000704770477047704770472DE9FF4F0C4601
:1006B0001E464FF0FF378BB0D2E90001DDF86080B5
:1006C0000A908A46C1F30A5505B93D4600210846FD
:1006D0004FF00000BAF1000F00F4400005DA00EB23
:1006E00080004FF4400101EA50004FEA9059B9F1FF
:1006F000010F00DDB9460A9850EA4A000ED044F6D0
:100700001050A5F2FF3545432F14B8F1000F1ED04D
:100710007542291E1EDDC9F100021CE0B8F1010F6F
:100720004FF0000001D0302103E0F24305E02154F6
:10073000401CB042FBDB30460022002121540B99C3
:10074000C1F80880C1E900200FB0BDE8F08FBD1BE3
:100750006D1CDEE74A4600DA694206A800F0B8FAE6
:1007600006AB93E8070003AB83E8070050460A99FD
:1007700000F08DFB8DE80700A0F500501F380090B9
:100780000398002D0ADD42F21F014A460844002367
:1007900003A90390684600F0F6FD09E0A0F50050BB
:1007A0004A461F38002303A90390684600F000FE64
:1007B0008DE807000004000C03D04FF0FF30410823
:1007C00000E01046B8F1000F03D000220092154659
:1007D0001EE0751E05D400F0F5F9303262556D1E2D
:1007E000F9D5B3460122084302D000227F1C04E061
:1007F0002078302801D100227F1E002A099784D05A
:100800001DE0112D07DA00F0DDF9303262556D1C64
:1008100050EA0102F5D1084302D00098C8B10EE0B9
:100820000021681E05E0235C625C63542254401E74
:10083000491C8142F7DBAB46A81B401E09900020F3
:1008400004F80B000B98099AC0F80880C0E9002B47
:100850007AE711264FF0000857E72DE9F04F884658
:100860000446D21D22F0070191B0D1E90001CDE983
:100870000A0103F0B3FD02460B98C00F01D02D20F2
:1008800007E02068810701D52B2002E0202101EA42
:10089000C000032A099001D0072A05DB0346414620
:1008A000204600F0D5F90BE12078800601D5E069FB
:1008B00000E00620B8F1650F814606D0B8F1660F5A
:1008C00018D0B8F1670F70D131E00020B9F1110FE5
:1008D000009001DB112301E009F101030AAA01A93B
:1008E0000CA8FFF7E2FEDDE90C70002609F1010516
:1008F000834647E001204B4600904FF000470AAA8C
:1009000001A90CA8FFF7D1FEDDE90DB00C995D46F9
:10091000002610B909F101000D18B9EB050003D448
:10092000C0F1FF3609F10105A5EB09002BE0B9F193
:10093000010F01DA4FF001090020B9F1110F009009
:10094000484601DD112300E003460AAA01A90CA8CC
:10095000FFF7ABFEDDE90C704D460026834620789C
:1009600000070AD4AB4500DA5D4601A8012D04DD7D
:10097000411911F8011C302907D04F4502DA17F14F
:10098000040F04DA012082460FE06D1EEEE7002F0F
:1009900002DCED1B3E4403E0781CA84200DD7D1C18
:1009A000B81B00F1010A4FF000472078000703D47C
:1009B000AA4501DB4FF0FF3A0021B7F1004F0DF1DE
:1009C00043088DF8431024D002202B23002F01DA96
:1009D0007F422D230A21021EA0F1010000DC5FB13D
:1009E00097FBF1FC97FBF1F201FB1C7C17460CF125
:1009F000300C08F801CDEEE7A8F101000370218862
:100A0000090501D5452100E06521A0F1010800F8A4
:100A1000011C09980FA9A1EB0807FF1D00B10120D7
:100A2000411901EBEA70A1693844081A401EA0611F
:100A30002078C00602D42046AFF30080099828B180
:100A4000D4E901219047206A401C20622078C0062A
:100A500022D52046AFF300801EE0002E04DBB34514
:100A600002DD01A8805D00E03020D4E9012190473B
:100A7000206A401C2062761CAAF101005FEA000A8D
:100A80000AD100F09BF8C0680168405CD4E90121FC
:100A90009047206A401C2062281EA5F10105DCDC7D
:100AA00007E0D4E9012118F8010B9047206A401CA7
:100AB0002062381EA7F10107F3DC2046AFF3008067
:100AC000032011B041E6000001694A1C0261087868
:100AD000704700B58FB0CDE901310021059105497E
:100AE0007944CDE9031011466846FFF7DFFC0FB0EB
:100AF00000BD0000E5FFFFFF0A6802F8010B0A6075
:100B00007047D1E900239A4202D2531C0B60107047
:100B1000704710B5203AC0F00B80B1E81850203A69
:100B2000A0E81850B1E81850A0E81850BFF4F5AF8D
:100B30005FEA027C24BFB1E81850A0E8185044BF17
:100B400018C918C0BDE810405FEA827C24BF51F884
:100B5000043B40F8043B08BF7047D20728BF31F878
:100B6000023B48BF11F8012B28BF20F8023B48BFC9
:100B700000F8012B70474FF000020429C0F01280EA
:100B800010F0030C3FF468ADCCF1040CBCF1020F83
:100B900018BF00F8012BA8BF20F8022BA1EB0C0115
:100BA000FFF75ABD5FEAC17C24BF00F8012B00F8B3
:100BB000012B48BF00F8012B704700000048704728
:100BC0008C56002030B5B0F10A024FEA900E71F158
:100BD00000034EEA817EB0EB0E0061EB91014FEA1B
:100BE000101E4EEA017E10EB0E0041EB11114FEA90
:100BF000102E4EEA016E10EB0E0041EB11214FEA70
:100C0000104E4EEA014E10EB0E0041EB1141401820
:100C100041F100014FEAD00040EA41704FEAD101B2
:100C200010EB80054FEA810444EA907444EB010420
:100C30006D1944EB0404521BA3414FF0000348BF5D
:100C40000A3200D530BD401C41F1000130BD00002A
:100C50002DE9F0411F46044603260168072A01F4E6
:100C6000006004DB08B116A505E016A503E008B195
:100C700015A500E015A521F010002060A069C01E98
:100C8000A0610FB1401EA0612046AFF300804FB1BC
:100C9000D4E9012138469047206A401C2062C01CDC
:100CA000206206E0206AFAE7D4E9012115F8010B79
:100CB0009047761EF8D22046AFF30080BDE8F08161
:100CC0004E414E006E616E00494E4600696E6600F0
:100CD0002DE9F047814616468AB0354878440DC85C
:100CE0008DE80D0032487844801C03AC0DC884E8C0
:100CF0000D0041F69B300844372190FBF1F290FB48
:100D0000F1F5A5F1800501FB12041B3C02D56442FC
:100D1000012000E00020DFF898A080460027FA4478
:100D2000AAF1BE0A0EE0E0070AD03246684607EB99
:100D3000470101230AEB810100F03AFB8DE807002F
:100D400064107F1C002CEED1194F7F44AE3F19E098
:100D5000E80715D007EB04100DF1180A90E80E0013
:100D60008AE80E00C068F04201D198190890324616
:100D7000012306A903A800F01BFB03AB83E80700CF
:100D80006D10641C002DE3D14FF00103324669461B
:100D9000B8F1000F03A802D000F0F5FA01E000F06E
:100DA00007FBC9E90001C9F808200AB0BDE8F087CF
:100DB000C45A0000004870476C5600207546FFF783
:100DC000F9FFAE4605006946534620F00700854608
:100DD00018B020B5FFF7C4FABDE820404FF0000678
:100DE0004FF000074FF000084FF0000B21F0070113
:100DF000AC46ACE8C009ACE8C009ACE8C009ACE856
:100E0000C0098D46704710B50446AFF300802046F8
:100E1000BDE81040FFF72EBA4FF0013C50F8042B0C
:100E200051F8043B9A4215D1A2EB0C03934313EA09
:100E3000CC130BD150F8042B51F8043B9A4209D142
:100E4000A2EB0C03934313EACC13E7D04FF000005E
:100E5000704700BFD01A01BAB1FA81F101F0180150
:100E600022FA01F0CB40C1F12001DBB2C0B2C01ABE
:100E70002CFA01F3D11A914311EAC311E6D170475C
:100E800001491820ABBEFEE72600020070475FEA6A
:100E9000400C08BF91F0000F4FEA8C234FEAC122AB
:100EA00043EA51514FEA1C5018BF00F5F0404FEA99
:100EB000300018BF41F000415FEA6C5C00F029800F
:100EC000BCF1FF3F08BF40F080407047130C06BFE5
:100ED00012044FF0100C4FF0000C130E04BF12025E
:100EE0000CF1080C130F04BF12010CF1040C930F4A
:100EF00004BF92000CF1020CD30F04BF52000CF19E
:100F0000010C11464FF00002A0F11F00A0EB0C00F5
:100F1000704711F0004F08BF704731F000413FF4B7
:100F2000D5AF0B0C06BF09044FF0100C4FF0000CAE
:100F30000B0E04BF09020CF1080C0B0F04BF0901D2
:100F40000CF1040C8B0F04BF89000CF1020CCB0FC9
:100F500004BF49000CF1010CCCF12003A0EB0C0004
:100F600022FA03F302FA0CF241EA030100F1010054
:100F7000704720F07F4C80EA030023F07F47ACEB02
:100F8000070303F57C5300F0004003F1FF032DE954
:100F900080494FEA154B09B44FEA144325EA0B4E3A
:100FA00024EA03480FF2042606EB132749083E788B
:100FB0005FEA320203FB0667C7F5000707FB06F688
:100FC0004FEA54374FEAD64606F1020607FB066C95
:100FD000CCF1005C4FEA1C472CEA074C07FB06F4F7
:100FE0000CFB06F504EB15464FEA961634BF0020BD
:100FF0004FF000404FEAD13706FB07FC4FEA1C4C8C
:101000000CFB0BF7D21B03FB0CF761EB07010CFB8E
:101010000EF7B0EB074072EB17420CFB08F734BF3A
:10102000A2EB0742B2EB074261EB17414FEA0C44D7
:101030004FEA910706FB07FC4FEA1C4C0CFB0BF731
:10104000B0EBC74072EB573203FB0CF734BFA2EB97
:10105000C742B2EBC74261EB57310CFB0EF7B0EB66
:10106000C70072EB57720CFB08F734BFA2EBC70244
:10107000B2EBC70261EB5771039F4FEA816141EA0E
:10108000921104EBCC044FEAD1374FEA826206FB9F
:1010900007FC42EA90124FEA80604FEA1C4C0CFBBE
:1010A0000BF7D21B03FB0CF761EB07010CFB0EF7F0
:1010B000B0EB074072EB17420CFB08F734BFA2EB12
:1010C0000742B2EB074261EB17414FEA8C554FEAFA
:1010D000910704EB9C2406FB07FC4FEA1C4C0CFB1D
:1010E0000BF7B0EBC74072EB573203FB0CF734BF82
:1010F000A2EBC742B2EBC74261EB57310CFB0EF7D4
:10110000B0EBC70072EB57720CFB08F734BFA2EBD1
:10111000C702B2EBC70261EB577115EB4C254FEAE2
:10112000816141EA92114FEA82624FEAD13742EA85
:10113000901206FB07FC44F100044FEA80604FEA7E
:101140001C4C0CFB0BF7D21B03FB0CF761EB0701EC
:101150000CFB0EF7B0EB074072EB17420CFB08F7E5
:1011600034BFA2EB0742B2EB074261EB174115EB2C
:101170001C154FEA813141EA92414FEA823242EA3C
:1011800090424FEA80304FEA0C7644F1000448EA7E
:1011900003434EEA0B484FF0000EB2EB080C71EB24
:1011A000030724BF624639464EEB0E0E4FF0000B8C
:1011B0000018524149414BEB0B0BB2EB080C71EBA1
:1011C00003077BF1000B24BF624639464EEB0E0E3F
:1011D0004FF0000B0018524149414BEB0B0BB2EBA7
:1011E000080C71EB03077BF1000B24BF6246394604
:1011F0004EEB0E0E51EA020718BF46F0010616EB41
:101200000E7655F1000254F1000103D5BDE88901C5
:10121000BDE80088BDE88901BDE80048B619524123
:1012200041EB0101A3F10103704780807F7E7D7C4B
:101230007B7A7978777676757473727171706F6E68
:101240006E6D6C6C6B6A6A69686867666665646413
:10125000636362616160605F5F5E5E5D5D5C5C5B9D
:101260005B5A5A595958585757565655555554540C
:10127000535352525251515050504F4F4F4E4E4D6A
:101280004D4D4C4C4C4B4B4B4A4A4A4949494848B6
:1012900048474747474646464545454444444443F6
:1012A00043434342424242414141002B9C4630D499
:1012B00077002BD01CB54FEA370703B44FF010006E
:1012C0004FF01001BAF1000F06D0BCF1000FDCBFE7
:1012D00040F0080040F008014FF000000FBCBDE8EE
:1012E00010400BF1010BBBF1010F08BF5FEA1707BC
:1012F00022BF12F1010211F101014FF0004143F14F
:10130000000300F0004043EA00007047F9D357089B
:10131000D0E746EA064613F1400F4FEA16461FDDB6
:1013200013F1200FDFBF16430A46002120335B4232
:10133000BED0C3F1200746EA064602FA07F74FEA95
:10134000164646EA0706C3F1200722FA03F201FA1D
:1013500007F721FA03F14FF0000342EA0702A7E77B
:1013600046EA020646EA06464FEA164646EA0106FD
:10137000BCBF46EA0646360C4FF000034FF00002B1
:101380004FF0000194E72DE9804C9A46934670B4E3
:1013900091E8380007C831EA400C48BF34EA430CF2
:1013A00003D5FFF7E6FDFFF780FFF0BCBDE8008C3A
:1013B0002DE9804C9A46934670B491E8380007C8EE
:1013C00010F0804F08BF13F0804F03D100F005F8F4
:1013D000FFF76BFFF0BCBDE8008C20F07F4780EA90
:1013E000030023F07F4C07EB0C03A3F57C5300F0C4
:1013F0000040A3F1FE0392F0000F00F0B38095F0DF
:10140000000F00F077802DE901494FEA11404FEAC3
:10141000144621EA004800FB06FC24EA064708FBC4
:1014200006F607FB08F800FB07F718EB06484CEB3D
:10143000164C4FEA124B18EB07484FEA15464CEB97
:10144000174022EA0B4E0BFB06FC25EA06470EFB73
:1014500006F607FB0EFE0BFB07F71EEB064E4CEBEA
:10146000164C4FF000061EEB074E4CEB174B18EBDB
:101470000B0840F1000018EB0E0B58EB000840F190
:1014800000008F1A4FF000013CBFC943661B14BF18
:10149000B5EB040C00213CBFC943F61B4FEA1744CF
:1014A0004EEA8E0E27EA04454FEA1C4704FB07620A
:1014B0002CEA074C05FB07F70CFB05F604FB0CFCBC
:1014C00016EB074642EB174216EB0C4642EB1C426A
:1014D0001BEB060658EB0202414146EA9E0601D587
:1014E000BDE80189B619524141EB0101A3F10103A5
:1014F000BDE801894FEA14454FEA114724EA054641
:1015000021EA074C05FB07F406FB07F70CFB06F185
:1015100005FB0CFC11EB074144EB17444FEA124763
:1015200011EB0C4144EB1C4422EA074C05FB07F28B
:1015300006FB07F70CFB06F605FB0CFC16EB074653
:1015400042EB174216EB0C4642EB1C456A1854F16D
:10155000000148BF7047B619524141EB0101A3F1A8
:101560000103704795F0000F37D04FEA11424FEA60
:10157000144721EA024624EA074C02FB07F106FB66
:1015800007F70CFB06F402FB0CFC14EB074441EBE1
:1015900017414FEA154714EB0C4441EB1C4125EA77
:1015A000074C02FB07F506FB07F70CFB06F602FBF0
:1015B0000CFC16EB074645EB174516EB0C4645EBC6
:1015C0001C42121951F1000148BF7047B61952412F
:1015D00041EB0101A3F1010370474FEA14454FEAC3
:1015E000114724EA054621EA074C05FB07F106FBF3
:1015F00007F70CFB06F24FF0000605FB0CFC12EBA4
:10160000074241EB174112EB0C4251EB1C4148BF22
:101610007047921841EB0101A3F101037047FEE707
:1016200070470000F0B500234FF000454FEA030279
:10163000016902EB820400EB820601EBC4010B603E
:101640004B608B60CB600B620D604B62032A476975
:1016500047F480474F604F6827F000474F60B16400
:1016600005D20669282707EBC404344400E0046966
:10167000CC60521C042ADBD3C36503668366C36651
:1016800083650168006901F58051C860F0BD70B5DF
:10169000A4B0064601250024A8038DF8105002943A
:1016A0008DF80E50C1108DF811508DF81F408DF837
:1016B00004508DF820408DF81E508DF80F4009948D
:1016C0008DF828408DF856408DF81C4012948DF806
:1016D0004C4014948DF85440CDE9050169463046DC
:1016E0008DF8554000F084F828048DF870508DF87E
:1016F00081508DF8715081011E94C2108DF8804088
:101700008DF888508DF872508DF882408DF86850B1
:101710001D92239421941F9119A91B9030468DF896
:101720008950199400F002F824B070BD2DE9F04101
:101730000C4601682D4A054601F58051237B8869D6
:1017400000EA0200F3B30022667B637F920642EA5E
:101750004662C3B30023A67B676942EA0352237F34
:1017600042EA4652A67F3A43276A42EAC31294F8F5
:10177000243042EA86123A4342EA830202438A61F3
:10178000286800F580508669012000F0C1F82868BB
:1017900000F5805086612679A169A0682369084315
:1017A00094F8252043EA4661A36A0843246840EA86
:1017B000C210296840EA8300204340F4000001F58C
:1017C000805101E00EE00FE00860286800F58050CD
:1017D0000468012000F09CF8286800F5805004603F
:1017E000BDE8F0810122AFE70123B4E7233FDEF833
:1017F0002DE9F04102680C4689680546424BA77BFB
:10180000267C1068002E41EA476100EA03006AD096
:101810000023667CDB05002E67D00026676943EA5B
:10182000865CE67F41EA0C01A37F41EA064141EA7A
:101830000701EBB35FF0000394F81CC02779A66999
:1018400041EA433141EA0C3194F82030314341EA16
:10185000872673B30021E37B94F8287046EA412180
:10186000666A41EAC311314341EA0711014311603D
:1018700028680668012000F04BF828684FF641718F
:1018800006602A6894F84C70A66C236D9069084035
:1018900043EA06417FB3002394F85570DE01012F1F
:1018A0002CD0002394F8567046EAC303194301E094
:1018B0001DE01EE0012F23D05FF0000394F8544098
:1018C000012C41EA83011DD05FF0000341EA43018E
:1018D0000143916128688469012000F019F82868A3
:1018E0008461BDE8F081012393E7012696E7012397
:1018F000A2E70121AFE7FFE70123CDE70123D1E70D
:101900000123DBE70123E1E70F8120FD72B6FEE74B
:1019100070B5044600F052FA0546601C02D0044837
:101920000078044400F04AFA401BA042FAD370BD8C
:1019300020000020F8B5040003D0D4F8840010B1D2
:1019400007E00120F8BD2020C4F88400204600F004
:101950008FF84348016841F480410160006800F459
:10196000804000903F48016821F400010160016857
:10197000A268114301600068206800F5805001688A
:1019800041F00101016000F019FA4FF4FA760546C2
:101990000CE000BF00F012FA401BB04206D904214F
:1019A000C4F88810E020C4F88400CAE7206800F575
:1019B00080500068C007EDD12046FFF768FE002583
:1019C0004FEA0501E668032901EB810204EB81037C
:1019D00006EBC200056045608560C56098610368DC
:1019E00043F48013036005D2E368282606EBC202A5
:1019F0001A4400E0E268C2600268491C042942F40B
:101A000040020260DED3A5622068E16800F58050E4
:101A100001612046FFF706FE6068134982880A6468
:101A20000278D0F8010042EA0020486420681021C2
:101A30000E4AC36B43F40273C3632068D0F80C31C1
:101A40001343C0F80C312068D0F8102142F403127F
:101A5000C0F81021C4F88850C4F884100020F8BDE4
:101A60004438024004380140008002406000020017
:101A7000F0B587B0044614216846FEF7EBFD304907
:101A80002068884259D12F48016841F000710160F7
:101A9000016801F000710591016841F08061016009
:101AA000016801F080610591016841F00061016009
:101AB000016801F000610591016841F004010160D5
:101AC000016801F004010591016841F00101016024
:101AD000016801F001010591016841F00201016016
:101AE000016801F002010591016841F040010160C7
:101AF000006802240025694600F040000590032696
:101B00000B2732208DE8F1000F4800F025F88620E1
:101B100069468DE8F1000D4800F01EF82003694683
:101B20008DE8F1000A4800F017F84FF4205069469C
:101B30008DE8F100074800F00FF807B0F0BD000095
:101B4000008002403038024000080240000002409D
:101B500000040240001802402DE9F84FDFF80CB2F3
:101B6000012403254FF00F0A00220BF1040E00BFE1
:101B70000B6804FA02F63340B34278D10F7907F0CC
:101B80000307012F01D0022F1AD187684FEA4209BB
:101B9000D1F80CC005FA09F827EA08070CFA09FC85
:101BA0004CEA070CC0F808C0476891F804C0B74376
:101BB000CCF3001C0CFA02FC4CEA070CC0F804C081
:101BC0000E79F643B6070BD0C6684FEA420C8F6811
:101BD00005FA0CF826EA080607FA0CF73743C7603F
:101BE0000E7906F00306022E12D1D6084FEA42788B
:101BF00000EB860600960F69D6F820904FEAD8666B
:101C00000AFA06FCB74029EA0C063743009E376201
:101C10000F7906684FEA420C07F0030705FA0CF843
:101C200007FA0CF726EA0806374307604E6816F4F1
:101C3000403F1CD04E4E376847F4804737603668C7
:101C400022F00308970706F480460096494E3F0F9E
:101C50004644B146D6F80868DFF81C810AFA07FC4A
:101C6000404526EA0C0603D14FF0000C41E076E037
:101C7000DFF808C1604502D14FF0010C39E0DFF810
:101C800000C1604502D14FF0020C32E0DFF8F4C031
:101C9000604502D14FF0030C2BE0DFF8ECC060454B
:101CA00002D14FF0040C24E0DFF8E0C0604502D11F
:101CB0004FF0050C1DE0DFF8D8C0604502D14FF0B1
:101CC000060C16E0DFF8CCC0604502D14FF0070CDF
:101CD0000FE0DFF8C4C0604502D14FF0080C08E007
:101CE000DFF8B8C0604502D14FF0090C01E04FF0B9
:101CF0000A0C0CFA07FC4CEA060CC9F808C84F6835
:101D0000DBF80060FF0226EA030600D51E43774693
:101D1000CBF80060D1F804C0DEF800605FEA8C2CDC
:101D200026EA030600D51E43DFF840C03E60ACF152
:101D3000040C4F68DCF80060BF0326EA030600D5F8
:101D40001E430A4FCCF80060083FD1F804C03E683B
:101D50005FEACC3C26EA030600D51E433E60521CD7
:101D6000102AFFF405AFBDE8F88F0000083C0140E1
:101D700044380240003001400000024000040240AC
:101D800000080240000C0240001002400014024013
:101D900000180240001C02400020024000240240C3
:101DA000426921EA02030A4043EA02418161704725
:101DB0000AB1816170470904FBE7000001488068AF
:101DC000704700002000002030B590F84120202A04
:101DD00024D190F84020012A20D0012380F84030FF
:101DE000242280F84120202300240268156825F071
:101DF000010515600268156825F4805515600268B4
:101E000015680D43156001680A6842F001020A6016
:101E100080F8413080F84040002030BD022030BDC5
:101E200030B590F84120202A22D190F84020012A94
:101E30001ED0012380F84030242280F84120202445
:101E400000250268136823F0010313600268136819
:101E500023F4706343EA0121116001680A6842F0CB
:101E600001020A6080F8414080F84050002030BDF7
:101E7000022030BD70B5040004D094F84100002564
:101E800010B106E0012070BD204684F8405000F0FB
:101E900089F9242084F841002068016821F00101BB
:101EA0000160D4E9001020F070600861206881684A
:101EB00021F400418160E06821680128A06830D0E9
:101EC00040F404408860E0680228206841682BD014
:101ED00021F40061416020682021154A43681343C2
:101EE00043602068C26822F40042C26054F8106B5C
:101EF0000DCC104340EA0320F06054F81C3CD4E9B8
:101F000000021043186054F81C0D026842F00102F0
:101F10000260656484F84110256384F84250002013
:101F200070BD40F40040CDE741F40061D2E700000D
:101F3000008000022DE9FF4F81B0044690F8410077
:101F400098469146DDF838B020287FD194F84000BB
:101F500001287BD0012784F84070FFF72FFF012272
:101F6000064619230090D103204601F0E9FAE0BBB0
:101F700037482222002584F8412010214FF0807A32
:101F800084F842106564A4F82A80628D4FF00078CE
:101F9000C4F82490FF2A656303D927853A46009048
:101FA0003AE0618D218500903BE00299204601F0E6
:101FB000AFFA13E001F002FBB8B92068616A406A29
:101FC0000870606A401C6062208D401E81B22185CD
:101FD000608D401E6085608D00B171B1608D3246AC
:101FE000594600282046E5D100E002E001F03AFB26
:101FF000E0B1012005B0BDE8F08F00225B468021F2
:102000002046009601F09CFA0028F2D1608DFF284E
:1020100004D9FF22228500955346C6E7608D2085AE
:102020000095434694F82820BFE70FE02068202160
:10203000084AC161206843681340436084F8411036
:1020400084F84250002084F84050D3E70220D1E7C2
:102050000024008000E800FE2DE9FF4F81B0044617
:1020600090F8410099469046DDF838B020287BD1A1
:1020700094F84000012877D0012084F84000FFF751
:102080009DFE0122064619230090D103204601F04F
:1020900057FA002853D1414921220025C4F8248051
:1020A000102084F84120FF2784F842006564A4F8DA
:1020B0002A90608D4FF080794FF0007A6563FF2899
:1020C00002D94B46278505E0608D534620850004E4
:1020D000000C10D0226898F800009062606A401CE2
:1020E0006062608D401E6085208D401E2085401CF2
:1020F0000091C2B201E0002200910299204601F055
:1021000007FA13E001F0DAFAC8B9606A21680078CA
:102110008862606A401C6062608D401E6085208D10
:10212000401E80B22085618D01B160B1608D324664
:10213000594600282046E5D101F094FAE0B101208B
:1021400005B0BDE8F08F00225B4680212046009656
:1021500001F0F6F90028F2D1608DFF2805D9278516
:102160003A464B460095C8E716E0608D53462085F9
:10217000009594F82820C0E721682020084AC8610B
:1021800021684B6813404B6084F8410084F842504A
:10219000002084F84050D3E70220D1E700200080DF
:1021A00000E800FE10B5A8B00446142121A8FEF7EF
:1021B00051FA84216846FEF74DFA19492068884291
:1021C0002BD10024199400140090684600F0C6F941
:1021D00008B1FFF79BFB1348016841F00201016061
:1021E00000680DF1840C122100F0020026904FF4DB
:1021F000407004238CE8130003220B48CDE924230C
:1022000021A9FFF7A9FC07481030016841F400112B
:102210000160006800F40010269028B010BD000096
:1022200000540040303802400004024002488168F7
:10223000027811448160704720000020032010B50F
:1022400000F09EF80F2000F005F800F04FF8002095
:1022500010BD000030B505461F4887B0016841F049
:1022600010010160006806A900F01000009001A8AC
:1022700000F08AFC0498B0B100F0A6FC4000174AB8
:102280000021174BB0FBF2F2164840F2E73403602E
:10229000C0E90341521EC0E90121816100F0A9FE9D
:1022A000040003D015E000F08FFCE8E70D4800F0D3
:1022B000D3FE04000DD1362000F034F8102D07D2E3
:1022C00000222946362000F03BF80748056000E070
:1022D000012407B0204630BD4038024040420F0084
:1022E000001000404C070020240000200C4882B061
:1022F000016841F080510160006800F0805000905A
:102300000748001D016841F4804101600068002217
:102310000F2100F480400090901E02B000F010B831
:1023200040380240002809DB410900F01F02890003
:10233000012001F1E0219040C1F800017047000048
:102340000E4BF0B41B680D46C3F30223C3F107061E
:10235000042E00D90426191D072901D2002300E00C
:10236000DB1E012404FA06F19C40491E2940641E2C
:10237000994014402143F0BC02F048B80CED00E055
:10238000064900F0070210B54FF6FF040868044B39
:10239000204040EA02201843086010BD0CED00E028
:1023A0000000FA0501680123C0F8D834002280F843
:1023B000CC248869044A40F000608861486D10436D
:1023C000486500207047000003000010F8B50400C5
:1023D00005D094F895040025266810B106E0012088
:1023E000F8BD204684F8945400F05CF8032084F88B
:1023F0009504B6F1A04F00D1A571206801F07EFFD1
:10240000207C8DF8000094E80F0001F053FE0226B6
:10241000B8BB2068002101F0B1FF90BB002001276C
:102420000DE000BF00EBC001421C04EB81014F75C1
:102430000D76CD610D624D620875C885D0B22179E7
:102440008142EFD8002011E000EBC001421C04EBF8
:10245000810181F8555281F85852C1F85C52C1F897
:102460006052C1F8645281F85402D0B2217981429D
:10247000EAD8207C8DF8000094E80F0001F088FE77
:1024800010B184F89564AAE7207B657484F895748C
:10249000012802D12046FFF785FF206801F069FE80
:1024A0000020F8BD30B5A7B00446142121A8FEF7DE
:1024B000D1F884216846FEF7CDF82068B0F1A04F2E
:1024C0003ED14FF400100090002468461F9400F0A5
:1024D00045F808B1FFF71AFA1A48016841F00101FE
:1024E0000160006821AD022100F0010026904FF448
:1024F000E85085E813000A23134D032221A928463A
:10250000CDE92423FFF728FB6815CDE9210421A993
:1025100028462394FFF720FB0A48001D016841F07C
:1025200080010160006800F08000269005481430AA
:10253000016841F480410160006800F48040269009
:1025400027B030BD30380240000002400248016828
:1025500041F4807101607047007000402DE9F84F30
:1025600004460078DFF824944FF000063746C00791
:102570000ED0D9F8001021F40001C9F80010D9F8E4
:102580000010626B1143C9F80010606B00B901269E
:10259000FE4D2068843500030ED5E16B286820F4D9
:1025A000401008432860E06BB0F5801F01D010B1E7
:1025B00002E0012600E0012720684FF4800BC002F2
:1025C0000CD5216C286820F4400008432860206C5A
:1025D000584501D1012601E000B901272068C10159
:1025E00000D50126800666D5E8483830016841F0FC
:1025F000805101600068DFF898A300F080500090DF
:10260000DAF8001041F48071CAF80010FFF7D6FB29
:10261000804605E0FFF7D2FBA0EB080064287DD8D8
:10262000DAF80000C005F5D5DFF8608308F1680826
:10263000D8F8000010F440702AD0218E01F44071C7
:10264000814225D0D8F80010D8F8002021F440713C
:1026500042F48032C8F80020D8F8002022F48032FA
:10266000C8F80020C8F80010D8F80000C0070FD044
:10267000FFF7A4FB824607E0FFF7A0FBA0EB0A01EF
:1026800041F288308142CAD8D8F800008007F3D5DB
:10269000206BC0F3012103297ED0D9F8001021F46A
:1026A000F811C9F80010228ED8F80010C2F30B02FE
:1026B0001143C8F800102078C00607D5286820F01C
:1026C000807028602868A16B084328602188AF4883
:1026D0008830490405D5626E016821F44031114308
:1026E00001602188090405D5A26E016821F440210A
:1026F000114301602168C90305D5E26E016821F428
:102700004011114301602168890305D5226F0168DA
:1027100021F4400111430160217800E016E14906EF
:1027200005D5626C016821F0030111430160217835
:10273000090605D5A26C016821F00C011143016066
:102740002188C90505D5E26C016821F030011143EB
:1027500001602188890505D5226D016821F0C0013D
:10276000114301602188490505D5626D016821F496
:102770004071114301602188090505D5A26D0168EA
:1027800021F44061114301602188C90407D5E26D3D
:10279000016821F4405100E04AE0114301602188C2
:1027A000890405D5226E016821F44041114301607E
:1027B0002168490205D5A26F016821F080611143AB
:1027C000016021684FF0006A890209D5E26F016853
:1027D00021F0006111430160E16F514500D10127F3
:1027E00021680A0700D50127490305D5626F0168F2
:1027F00021F04071114301602168090206D5D4F827
:102800008020016821F0805111430160DFF884913C
:10281000012E02D0206880017ED5D9F800004E46F6
:1028200020F08060C9F80000FFF7C8FA80460FE08A
:10283000594AD9F80030104023F4F8120243C9F87D
:10284000002030E7FFF7BAFAA0EB080064287DD833
:1028500030680001F6D421784C487C30C90712D08A
:10286000616B81B9237A62680168D0F800C0920177
:10287000C1F3014142EA0142CCF3036142EA016142
:1028800041EA0371016021680A0303D5E26BB2F5E6
:10289000801F04D0C9021AD5216C594517D163682D
:1028A000016894F80CC002689B01C1F3014143EA3E
:1028B0000141C2F3027241EA0C6141EA0271016016
:1028C0002968626A21F01F01521E114329602168A4
:1028D000C90110D5238A62680168D0F800C092014E
:1028E000C1F3036142EA034242EA0162CCF302719E
:1028F00042EA01710160216889010CD56168228A70
:10290000237B94F808C0890141EA024141EA03614E
:1029100041EA0C71016000E011E03168B04641F01D
:1029200080613160FFF74AFA064604E0FFF746FA95
:10293000801B64280AD8D8F800000001F6D56FB3D0
:10294000D9F800004E4620F0805000E07BE0C9F846
:102950000000FFF733FA074605E000BFFFF72EFA45
:10296000C01B64286FD83068C0438000F6D5074884
:10297000216880300A0301D5E26B1AB1C90225D55E
:10298000216C19BB63690168277E08E008380240A2
:102990000070004000380240FFFCFF0F5AE0026860
:1029A000C1F301419B0143EA0143C2F3027143EACF
:1029B000076242EA0171016029686FF0FF03A26AB1
:1029C00021F4F85103EB02221143296021688902A6
:1029D00012D5E16F51450FD1238C626901680768F8
:1029E0009201C1F3036142EA034242EA0162C7F382
:1029F000027142EA017101602178090716D5616907
:102A00000268D0F800C08B01277FC2F30362CCF3C9
:102A1000014143EA014141EA026141EA0771016073
:102A20002868E16A20F4403008432860306840F0AC
:102A300080503060FFF7C2F9044607E0FFF7BEF9A7
:102A4000001B642802D90320BDE8F88F3068C0431A
:102A50008000F3D40020F7E72DE9F04705000F468A
:102A600063D0444E306800F00F00B84209D230689D
:102A700020F00F0038433060306800F00F00B8429B
:102A800053D128683C4C810712D5400703D52068F4
:102A900040F4E05020602878000703D5206840F417
:102AA00060402060A968206820F0F00008432060A2
:102AB0002878C0072AD0304968680839012810D022
:102AC0000968022810D0890700292EDA216821F030
:102AD000030101432160FFF771F9804641F2883913
:102AE0000DE009688903EFE78901EDE7FFF766F973
:102AF000A0EB0801494502D90320BDE8F0876868CA
:102B0000216801F00C01B1EB800FEFD1306800F0CB
:102B10000F00B8420BD9306820F00F003843306006
:102B2000306800F00F00B84201D00120E5E72878B6
:102B3000400705D5E968206820F4E050084320608C
:102B40002878000706D52869216821F4604141EA08
:102B5000C000206000F058F82168084AC1F3031152
:102B6000515CC8400649086006480068FFF772FBE0
:102B70000020C2E7003C024008380240106700080D
:102B80002C000020240000200D4A0F2330B50360E4
:102B90004FF4E0540B4B156805F0030545601568CC
:102BA00005F0F0058560156805F4E055C56012680C
:102BB00004EAD2020261186800F00F00086030BD1C
:102BC00008380240003C0240044905480968006892
:102BD000044AC1F38221515CC84070470838024062
:102BE0002C00002020670008044905480968006897
:102BF000044AC1F34231515CC84070470838024072
:102C00002C00002020670008154910B515480968F8
:102C100011F00C0213D04110042A0FD0082A0ED153
:102C20000F4C241F2268236802F03F025B0207D585
:102C30002068C0F38810A0FB010106E0084610BD23
:102C40002168C1F38811A1FB00010023FDF79AFB65
:102C50002168C1F30141491C4900B0FBF1F010BDEE
:102C6000083802400024F4002DE9F84F04004FF02A
:102C700000076ED02078DFF868A3AAF10408C00727
:102C8000A8F104054CD0DAF800105046C1F38101D8
:102C9000012908D00068C0F3810002280AD1D8F8C1
:102CA0000000400206D52868800339D560680028F6
:102CB000DFD035E06068B0F5803F0BD010B1B0F5E3
:102CC000A02F11D0286820F480302860286820F4D4
:102CD000802002E0286840F480302860606890B16D
:102CE000FFF76CF806460AE0286840F48020286068
:102CF000F0E700BFFFF762F8801B642872D82868ED
:102D00008003F7D50CE0FFF759F8064605E000BF51
:102D1000FFF754F8801B6428F0D828688003F7D4A4
:102D20002078800742D5DAF80010504611F00C0FD9
:102D300008D00068C0F3810002280BD1D8F8000049
:102D4000400207D42868800718D5E068012800D120
:102D500014E041E1E0680028286817D040F0010045
:102D60002860FFF72BF8064605E000BFFFF726F8BE
:102D7000801B0228C2D828688007F7D520692968F7
:102D800021F0F80141EAC00028600FE020F00100C6
:102D90002860FFF713F8064605E000BFFFF70EF8BE
:102DA000801B02281ED828688007F7D420780007E7
:102DB00029D58B4861696C3000298146016812D0A1
:102DC00041F001010160FEF7F9FF064605E000BF92
:102DD000FEF7F4FF801B022804D8D9F80000800712
:102DE000F6D510E089E021F001010160FEF7E6FF71
:102DF000064604E0FEF7E2FF801B02287DD8D9F8E2
:102E000000008007F6D4207840076BD5DFF8D0911A
:102E100009F13809D9F80000C0000BD4D9F8001026
:102E200041F08051C9F80010D9F80000012700F0E6
:102E3000805000906B480168C90512D40168834630
:102E400041F480710160FEF7B9FF064605E000BF5E
:102E5000FEF7B4FF801B64284FD8DBF80000C005E4
:102E6000F6D55F4EA068683601280AD008B105285B
:102E700011D0306820F001003060306820F004008C
:102E800002E0306840F001003060A068A0B1FEF7B9
:102E900095FF83460CE0306840F004003060F0E7B6
:102EA000FEF78CFFA0EB0B0141F28830814266D81F
:102EB00030688007F4D50EE0FEF780FF834607E018
:102EC000FEF77CFFA0EB0B0141F28830814256D81F
:102ED00030688007F4D42FB1D9F8001021F0805168
:102EE000C9F80010A069C8B3DAF80010C1F3810175
:102EF00002294BD00228286800E040E020F08070D2
:102F0000286003D0FEF75AFF04463BE0FEF756FF69
:102F1000064604E0FEF752FF801B02282FD82868DF
:102F20008001F7D4D4E90962D4E907012E4B570890
:102F300094F82C20084303EB074343EA8611084327
:102F400040EA026040F00050C8F80000286840F0F5
:102F500080702860FEF732FF044606E03EE000BFC6
:102F6000FEF72CFF001B022809D828688001F7D53E
:102F700034E000BFFEF722FF001B022802D9032025
:102F8000BDE8F88F28688001F4D427E00128D8F83C
:102F9000000021D0E16900F480028A421CD1216A3C
:102FA00000F03F028A4217D1626A47F6C0710140C1
:102FB000B1EB821F10D1A16A4FF0FF3200F4403311
:102FC00002EB5101B3EB014F06D194F82C1000F045
:102FD0007060B0EB016F01D00120D1E70020CFE796
:102FE00008380240007000400000FFFF7047704743
:102FF000704710B5040003D094F83D0010B107E00D
:10300000012010BD002084F83C00204600F022F88A
:10301000022084F83D002068211D00F0C7FD01203A
:1030200084F8480084F83E0084F83F0084F84000AB
:1030300084F8410084F8420084F8430084F8440096
:1030400084F8450084F8460084F8470084F83D0081
:10305000002010BD7047000090F83D10012901D0FC
:1030600001207047174A022180F83D100168CB68A3
:1030700043F00103CB600068904214D0B0F1804F60
:1030800011D0114988420ED0104988420BD0104906
:10309000884208D00F49884205D00F49884202D0A3
:1030A0000E49884207D181680D4A1140062906D091
:1030B000B1F5803F03D0016841F0010101600020BB
:1030C000704700000000014000040040000800407C
:1030D000000C004000040140004001400018004086
:1030E0000700010070472DE9F04104460068002701
:1030F000C6680569A90713D5B10711D5FA1E026183
:1031000001212177206880698007204602D0FFF7DF
:10311000E9FF04E000F08BF8204600F089F82777FB
:10312000680716D5700714D5226802206FF00401D5
:10313000116120772068806910F4407F204602D01A
:10314000FFF7D0FF04E000F072F8204600F070F8BE
:103150002777280715D5300713D5226804206FF08C
:103160000801116120772068C0698007204602D0DD
:10317000FFF7B8FF04E000F05AF8204600F058F8D6
:103180002777E80616D5F00614D5226808206FF0D8
:103190001001116120772068C06910F4407F20463B
:1031A00002D0FFF79FFF04E000F041F8204600F056
:1031B0003FF82777E80708D0F00706D021686FF0BE
:1031C00001000861204600F035F8280601D4A80463
:1031D00008D5300606D521686FF4025008612046F4
:1031E000FFF705FFE80508D5300606D521686FF41E
:1031F000807008612046FFF7F9FE680608D5700662
:1032000006D521686FF040000861204600F01CF8E8
:10321000A8060AD5B00608D521686FF0200008611D
:103220002046BDE8F041FFF7E3BEBDE8F0817047FE
:103230007047000000680349884201D1FEF7F6BFDD
:103240007047000000100040704710B5040002D025
:10325000E06F10B107E0012010BD002084F8780075
:10326000204600F025F82420E0672068016821F05E
:1032700001010160606A10B1204600F001FD2046A6
:1032800000F0B6FD0128E7D02068416821F49041A4
:1032900041602068816821F02A018160206801680E
:1032A00041F0010101602046BDE8104000F04CBD36
:1032B00010B5A8B00446142121A8FDF7CBF984214C
:1032C0006846FDF7C7F91849206888422AD1801559
:1032D0000090002168461391FFF740F908B1FEF70E
:1032E00015FB1248016841F480210160006800F478
:1032F000802026900D481038016841F008010160D7
:1033000000680DF1840C022100F0080026900122D3
:10331000032307244FF440708CE81F00044821A9C0
:10332000FEF71AFC28B010BD0048004040380240AB
:10333000000C02402DE9F8430446C06F984616463B
:103340000D46202802D00220BDE8F88395B18EB149
:103350000021C4F884102120E067FEF72FFD81468C
:10336000A068A4F85060A4F852602027B0F5805FF0
:1033700002D003E00120E7E7206910B12E460025C6
:1033800010E000260EE08021204600F049FEC0B982
:10339000D6B116F8010B21688862B4F85200401EBD
:1033A000A4F85200B4F852004B464FF00002CDF89A
:1033B00000800028E7D14FF04001204600F030FEA9
:1033C00040B1E7670320BFE735F8020B2168C0F37F
:1033D0000800E1E7E7670020B6E7FEE701688A69D1
:1033E000D243920701D400228A6200688169C943EE
:1033F000C90703D0816941F0010181617047000074
:103400002DE9F047044600680026894617464FF02C
:10341000200835468169C90641D51021C1612FE0D8
:10342000B9F1FF3F2CD0FEF7C9FCC11B494502D8BA
:10343000B9F1000F24D12068426894F842108369E2
:1034400002F48042DB431B0415D4B2F5804F12D046
:10345000202910D0416841F480414160FEF7AEFC64
:10346000074608E0FEF7AAFCC01B192803D901266D
:1034700045F0200504E020688069C0438006F1D44F
:1034800020688069C043800602D5002EC8D003E0C2
:1034900016B92168C1F81C80012645F00405216891
:1034A0008869C20505D54FF48072CA6145F00105EF
:1034B000012641050AD5216880054FF4806245F058
:1034C0000805CA614FF0010602D40AE0800507D55D
:1034D000206801264FF4007145F00205C16100E04B
:1034E0008EB12046FFF77AFF20680021074F43681E
:1034F0003B404360606C2843606484F8418084F8FA
:10350000421084F840103046BDE8F08700E800FE25
:1035100070B50068C1F3090141EA0241074D049CFE
:1035200019434FF480664268214306EA54532B4303
:103530009A4321F000410A43426070BDFF63FF03DC
:103540002DE9F0411D4617460E460446DDF8188069
:1035500028E0424629462046FFF752FF10B10120DD
:10356000BDE8F081681C1DD0FEF728FCA0EB080028
:10357000A84200D8B5B92068806936EA00000FD0AB
:103580000020B8420ED1626C002084F84000202157
:1035900042F02002626484F8411084F84200DEE7C1
:1035A0000120EEE72068806936EA000004D00020A0
:1035B000B842CED00020D3E70120F9E72DE9F0474B
:1035C0000026914620278846044635463DE04A4677
:1035D00041462046FFF714FF00B1012520688169AC
:1035E000C943890619D4C5B981698169C943C90626
:1035F00012D41021C1610422194962640125206896
:10360000C761206842680A40426084F8417084F8CB
:10361000426084F8406000E06664FEF7CFFBA0EBF8
:103620000901414502D8B8F1000F0ED16DB92068EB
:103630008069C043400708D5606C012584F840606C
:1036400040F02000606484F8417020688069C043C5
:10365000400701D5002DBAD02846BDE8F08700000C
:1036600000E800FE70B516460D4604461FE03246DF
:1036700029462046FFF7C4FE08B1012070BDFEF7C1
:103680009DFB801BA84200D88DB920688069C0438B
:1036900080060CD5626C002084F84000202142F0A6
:1036A0002002626484F8411084F84200E5E7206853
:1036B0008069C0438006DAD4002070BD70B516461C
:1036C0000D46044621E0324629462046FFF798FE83
:1036D00008B1012070BD681C17D0FEF76FFB801B7E
:1036E000A84200D88DB920688069C04380070CD5F6
:1036F000626C002084F84000202142F020026264C5
:1037000084F8411084F84200E3E720688069C043F0
:103710008007D8D4002070BD3EB50020441E8DF82F
:10372000040001230C48902101AA0094FEF794FCA8
:10373000094802239021009402AAFEF7FBFBBDF882
:103740000800DFED060A40BA00B200EE100AB8EE3B
:10375000C00A20EE200A3EBD900100200000803B00
:1037600016498023164870B5134A00240A60E125E3
:1037700004701E04437040F2F4528570C4700471EA
:103780004471C1E901060F48C8600F48C1E904024D
:103790000846FEF7CFF808B172B6FEE707483821B1
:1037A0003838FCF757FF054821224FF440013838DC
:1037B0000260C0E9044170BD00800240E0000020CA
:1037C00018000020A0C0042000C004202DE9F04112
:1037D00086B014216846FCF73DFF3448016841F08B
:1037E00004010160016801F004010591016841F0E4
:1037F00080010160016801F080010591016841F0DC
:1038000001010160016801F001010591016841F0C9
:1038100002010160016801F002010591016841F0B7
:1038200008010160016801F008010591016841F09B
:1038300040010160006844F281061D4F002200F043
:103840004000314605903846FEF7B2FADFF8648052
:10385000002240214046FEF7ABFA00244FF400500E
:103860004FF488118DE8130013486946FEF774F988
:1038700001250096CDE90154694638460394FEF7C8
:103880006BF940200090CDE901546946404603940D
:10389000FEF762F980206946CDE9000440460294B3
:1038A000FEF75AF906B0BDE8F0810000303802405A
:1038B00000040240001802400008024012480021A3
:1038C00010B5104C0123114A0460C0E90121C0E980
:1038D000033141618161C1610162FEF7CBFA08B138
:1038E00072B6FEE708480021FEF76EFA08B172B61C
:1038F000FEE705480021FEF793FA002801D072B6D2
:10390000FEE710BD0054004090010020D28C8000E2
:103910000C48002110B50A4C0C224FF4E13304602E
:10392000C0E90131C160C0E904128161C161016275
:103930004162FFF78AFC002801D072B6FEE710BD95
:1039400000480040E40100200C48022270B54FF00E
:10395000A0450560062404710021C2710123817114
:1039600042728372C17201738373C173FEF72EFDBD
:10397000002801D072B6FEE770BD00006C02002086
:10398000FEE7FEE74FF47A74204600F09FFDFBE768
:103990000F4C002201214FF0FF33606900F04CFE14
:1039A0000C4E4FF49675606900F0D6FDC00705D047
:1039B00001213046FEF7F4F9284605E000223046A2
:1039C0000121FEF7F5F9642000F080FDEBE700002F
:1039D0000000002000040240C4B0DFF88880002608
:1039E00002AF3446642345460022D8F810003EA9B1
:1039F00000F09CFE78B9701C3C21B0FBF1F307EBA2
:103A000086029DED3E0A3C2C82ED000A01FB130666
:103A100001D2641CE4B2686900F09EFDC0071DD0AD
:103A2000002519E07019B0FBF4F104FB1100C0B2DD
:103A300057F8200002F098FDCDE9000110210AA2FC
:103A40003FA8FCF717FD82B209483FA94FF0FF33AA
:103A5000FFF770FC6D1CEDB2A542E3D30A2000F025
:103A600035FDBFE700000020252E32660D0A00005C
:103A7000E4010020104D4FF47A77104E104C08B539
:103A8000FFF74AFE002369468DED000A20691A46B9
:103A900000F0C6FE0098A84204DD6069012100F034
:103AA00095FD05E0B04203DA6069012100F028FDD0
:103AB000384600F00BFDE3E70000E0410000D04194
:103AC00000000020502010B572B680F31188BFF3BB
:103AD0004F8FBFF36F8F62B602F068FB18B10449D5
:103AE0004FF080500860002080F3118810BD000066
:103AF00004ED00E070B592B030216846FCF7AAFDF5
:103B000014210CA8FCF7A6FDFEF720FD1E48016855
:103B100041F080510160006800F0805011901B4816
:103B2000016821F4404141F48041016000684FF494
:103B3000A021022400F44040119001204825820574
:103B400003260423CDE90642CDE90001CDE908357D
:103B5000CDE90A466846FFF787F808B172B6FEE776
:103B60004FF48052002010900F21CDE90E02CDE9D4
:103B70000C1402210CA8FEF76FFF002801D072B6CA
:103B8000FEE712B070BD00004038024000700040F7
:103B90000248016841F470010160704788ED00E05F
:103BA0000148FFF7A0BA00004C070020F0B5294BF0
:103BB0004FF0804E284D02689842284E284F294CDD
:103BC00009D0704507D0A84205D0B04203D0B84212
:103BD00001D0A04205D1D1F804C022F070024CEA15
:103BE000020298421BD0704519D0A84217D0B042AB
:103BF00015D0B84213D0A04211D01B4DA8420ED010
:103C00001A4DA8420BD01A4DA84208D0194DA8420F
:103C100005D0194DA84202D0184DA84203D1CD6855
:103C200022F440722A438E684D6922F08002C662F7
:103C30000E682A439842866201D0A04201D10969E8
:103C400001630368012143F00403036041610260E2
:103C5000F0BD0000000001400004004000080040EA
:103C6000000C0040000401400040014000440140BD
:103C70000048014000180040001C004000200040A7
:103C800090F82410090706D50168436B4A6822F4AE
:103C900000421A434A6090F82410C90706D0016810
:103CA000836A4A6822F400321A434A6090F824106A
:103CB000890706D50168C36A4A6822F480321A432C
:103CC0004A6090F82410490706D50168036B4A68DA
:103CD00022F480221A434A6090F82410C90606D5BF
:103CE0000168836B8A6822F480521A438A6090F8D4
:103CF0002410890606D50168C36B8A6822F4005235
:103D00001A438A6090F82410490611D50168036CA3
:103D10004A6822F480121A434A60016CB1F5801F90
:103D200006D10168436C4A6822F4C0021A434A6013
:103D300090F82410090606D50168826C486820F4C2
:103D40000020104348607047F8B500260446C0F8CC
:103D50008460FEF733F803462068202500680007DA
:103D600016D56FF07E40009000222046290400F016
:103D700057F968B1216851E8000F20F0800041E850
:103D80000002002AF6D1E567032084F87860F8BDC8
:103D9000E567C4F8805026666666002084F878607F
:103DA000F8BD016851E8002F22F4907241E8002329
:103DB000002BF6D10168083151E8002F22F00102F2
:103DC00041E80023002BF5D1016E012908D10268DA
:103DD00052E8001F21F0100142E80013002BF6D139
:103DE00000212022C0F88020016681667047000013
:103DF0002DE9F04104460368C2698168D4E90450A2
:103E0000DFF8F0C17C4E29431F68002510437B4A30
:103E1000014307EA0C070F431F604FF4004021687D
:103E2000E7684B6823F440533B434B602768A36922
:103E3000216AD7F808C019432CF430630B43BB60E8
:103E40002168B1420AD1116811F0030152D0012951
:103E50007CD0022971D003296ED184E0684B99424D
:103E60000AD1116811F00C0167D0042965D0082926
:103E700075D00C2960D176E0624B99420AD1116865
:103E800011F0300159D010296BD0202967D030298A
:103E900052D168E05C4B99420AD1116811F0C0011F
:103EA0004BD040295DD0802959D0C02944D15AE057
:103EB000564B99420DD1116811F440713DD0B1F5C6
:103EC000807F4ED0B1F5007F49D0B1F5407F33D12E
:103ED00049E04F4B99420FD1116811F4406109D06C
:103EE000B1F5806F3DD0B1F5006F38D0B1F5406FBE
:103EF00022D138E0012120E0464B99420DD11168D2
:103F000011F4405119D0B1F5805F2AD0B1F5005FAE
:103F100025D0B1F5405F0FD125E03F4B99420BD141
:103F2000116811F4404108D0B1F5804F19D0814299
:103F300015D0B1F5404F16D01021E369374A4FF63E
:103F4000EF7683422ED1092949D201E009E006E04B
:103F5000DFE801F00B0E114513454545160002211F
:103F6000EBE70421E9E70821E7E7FEF72DFE06E08D
:103F7000FEF73AFE03E0104602E0FEF745FE78B396
:103F80006168400000EB5100B0FBF1F0A0F11001BE
:103F9000B14224D84FF6F0732168C0F342021840B2
:103FA000104320E009291AD2DFE801F005080B19B7
:103FB0000D1919191000FEF707FE06E0FEF714FEB2
:103FC00003E0104602E0FEF71FFE48B1616800EB17
:103FD0005100B0FBF1F0A0F11001B14201D901256F
:103FE00002E0216880B2C8600020A066E066284632
:103FF000BDE8F081F369FFEF001001409038024006
:104000000044004000480040004C00400050004088
:104010000014014000780040007C00400024F400BF
:104020002DE9F047994617460D460446089E4FF085
:10403000000833E0701C31D0FDF7C0FEA0EB090092
:10404000B04218D8BEB120680168490726D5802D36
:1040500024D0402D22D0C169C94309070DD40825B9
:1040600005622046FFF79DFEC4F88450012084F8C5
:104070007880BDE8F0870320FBE7C069C0430005F6
:104080000CD421684FF4006008622046FFF789FED7
:104090002021C4F8841084F87880ECE72068C06997
:1040A00035EA000004D00020B842C3D00020E0E789
:1040B0000120F9E770B50D460446C2F307210498C4
:1040C000012918D0E06840F04000E060204600F090
:1040D0002DF8A16B41F48031C4F83810C5F30741C5
:1040E000012907D1A16841F00601A160A16841F052
:1040F0002001A16070BDA26BC3B20B49012B22F459
:104100008030A063E06800EA0100E060E06820F42D
:104110004010E06003D1E06840F48010E060204689
:1041200000F004F8DAE70000BFFFBDFF08B5002289
:104130004FF070610092521C8A42009212D80269BC
:10414000002A01DB009AF6E70A220092521E009232
:10415000FCD1026942F001020261009A521C0092F5
:104160008A4201D9032008BD0269D207F5D1002097
:1041700008BDD0F8001E21F00301C0F8001ED0F8E1
:10418000041841F00201C0F8041800207047000034
:104190002DE9F04F00250F46904604462E4628464E
:1041A00004EB8001C1F80451401C0F28F8D3C3F37D
:1041B00007405FEA0009204610D0806B40F40011F0
:1041C000C4F83810C8F30720C4F8005E0128204660
:1041D00017D0D0F8001841F0030119E0D0F8040816
:1041E00040F00201C4F80418A06B20F40011A16390
:1041F000206840F040012160206840F0800121608B
:10420000E0E7D4F80018380E204601D041F0010153
:10421000C0F80018102100F093F800B101262046E4
:1042200000F072F800B101264FF67F3A4FF0006CB3
:10423000C4F810584FF0904BC4F81458C4F81C58E8
:104240000020FAB214E000BF04EB4011D1F80039AD
:10425000002B06DA10B1C1F800B904E0C4F800C9B7
:1042600001E0C1F80059C1F81059C1F808A9401C73
:104270008242E9D8002013E004EB4011D1F8003B62
:10428000002B06DA10B1C1F800BB04E0C4F800CB83
:1042900001E0C1F8005BC1F8105BC1F808AB401C3D
:1042A0008242E9D8D4F81008C7F30742002A6FF019
:1042B000804120F48072C4F81028A561616103D1A7
:1042C000A06940F01000A061A069C8F30741094A45
:1042D0001043A06119B1A06940F00800A061B9F1D4
:1042E000010F03D1A06904490843A0613046BDE82D
:1042F000F08F000000383C8004000040816821F00D
:10430000010181600020704708B500214FF0706204
:104310000091009B5B1C009393420AD80369002B19
:10432000F7DA0091102303610099491C0091914232
:1043300001D9032008BD0169C906F5D4002008BDD4
:1043400018B500224FF070630092009C641C00942A
:104350009C420CD80469002CF7DA2024009244EA2D
:10436000811101610099491C0091994201D90320F2
:1043700018BD01698906F5D4002018BD70B5044642
:10438000C06801294FF0000520F0C040E06001D076
:1043900079B120E0E06840F00050E0600A20FDF7CD
:1043A000B7FA60690A3510F0010F10D1C82DF5D3A6
:1043B0000DE0E06840F08040E0600A20FDF7A8FAD8
:1043C00060690A3510F0010F01D0C82DF5D3C82D52
:1043D00001D0002070BD012070BDFEE703B401983C
:1043E0004100009850EAC12018BF04204A0D18BFB0
:1043F00040F0010040F2FF72B2EB515F08BF40F0A5
:104400000200012808BF052002B0704709070028F4
:104410004FEA116104DB00F1E02080F800147047DE
:1044200000F00F0000F1E02080F8141D70473038D4
:104430000A2801D20120704700207047FDF7FEFED8
:10444000FFF758FBFFF7C2F9FFF78AF9FFF736FAD3
:10445000FFF75EFAFFF778FA00F02CF9154A04210D
:104460003C2000F0A3F9144C0021124A903A20613C
:10447000124800F017FA0F4A0021206010486C3AE9
:1044800000F010FA0B4A002160600E48483A00F034
:1044900009FA084A0021A0600B48243A00F002FA09
:1044A000E0600448183000F06FF8606100F01EF919
:1044B000FEE70000E86600080000002085390008DB
:1044C000753A000891390008D939000810B5EFF3A2
:1044D000058181B9EFF3108111B9EFF3118119B1A1
:1044E00006490968022906D04FF0000408B100F01F
:1044F000EFFF204610BD6FF00504FAE780000020B2
:1045000070B505000E4602D0300E002802D06FF0C4
:10451000030410E0EFF3058078B9EFF3108010B9D1
:10452000EFF3118018B10B480068022805D0284627
:1045300001F028F90446204670BD284601F073F9C1
:1045400004463146284601F041F90028F3D1C41E43
:10455000F1E7000080000020002811D0EFF3058172
:1045600061B9EFF3108111B9EFF3118119B1054968
:104570000968022902D0002101F004B901F053B901
:1045800070470000800000204FF0000110B5EFF3ED
:104590000582BAB9EFF3108212B9EFF311821AB1A2
:1045A000094A1268022A0DD048B1D0E902202AB186
:1045B000202807D3104601F01FF902E010B901F0DE
:1045C0000DF90146084610BD8000002038B50C46A4
:1045D00010B1210E002902D06FF0030038BDEFF3B7
:1045E000058169B9EFF3108111B9EFF3118119B1A8
:1045F0000F490968022903D0214601F023F938BD8B
:1046000000216A460091214601F068F960B10099E5
:1046100020460029F3D0074A4FF080511160BFF3C4
:104620004F8FBFF36F8F38BD6FF0020038BD0000B1
:104630008000002004ED00E0F8B51D4616460C464B
:1046400010B1210E002902D06FF00300F8BDEFF386
:10465000058169B9EFF3108111B9EFF3118119B137
:1046600013490968022903D0F10704D0012303E0AC
:104670006FF00500F8BD0023B10701D5002200E06E
:1046800001222146009501F031F9F3076FF0010195
:104690006FF0020206D0844206D1F8BD0846F8BD8C
:1046A0001046F8BD0442FCD1002DF9D0F6E7000019
:1046B00080000020EFF3058070B9EFF310800A4905
:1046C0000028086802D1EFF311820AB1022803D052
:1046D00028B14FF0FF3070476FF00500704701229E
:1046E0000A600020704700008000002010B5EFF342
:1046F000058078B9EFF310800B490028086802D1D3
:10470000EFF311820AB1022804D0012805D04FF03E
:10471000FF3010BD6FF0050010BD0220086000F0F2
:10472000ADFF002010BD000080000020F8B56FF044
:1047300003021D466FF002064FF00004EFF30583FD
:10474000A3B9EFF3108313B9EFF311831BB1154B2A
:104750001B68022B0AD060B159B12A4601F07EFBDA
:10476000012810D075B16FF001040CE008B101B15F
:104770000DB1144607E0002200926A4601F012FCD7
:10478000012802D034462046F8BD00980028FAD00F
:1047900005494FF080500860BFF34F8FBFF36F8F14
:1047A000F1E700008000002004ED00E0F8B51446B9
:1047B0004FF00005EFF305826ABBEFF3108212B9E8
:1047C000EFF311821AB1154A1268022A23D010B3EE
:1047D00009B3ACB1D4E902326BB1502A1BD32269C0
:1047E000CAB100FB01F66769B74214D300250095F2
:1047F00001F08EF907E072B9226962B9626952B9B3
:10480000002201F05FF9050005D00CB1216800E03D
:10481000002100F027FE2846F8BD0000800000209F
:10482000F8B56FF003021D466FF002064FF000046A
:10483000EFF30583ABB9EFF3108313B9EFF31183F3
:104840001BB1164B1B68022B0BD068B161B1002362
:104850002A4601F0E5F9012811D07DB16FF001047D
:104860000DE008B101B10DB1144608E0002200923C
:1048700013466A4601F08CFA012802D034462046DD
:10488000F8BD00980028FAD005494FF08050086024
:10489000BFF34F8FBFF36F8FF1E700008000002060
:1048A00004ED00E02DE9FF414FEA01034FF0000560
:1048B000EFF305810395B1BBEFF3108111B9EFF36D
:1048C000118119B12049096802293BD058B34FF42E
:1048D00080774FF018014FF000044AB3166806B114
:1048E000344696691EB13146761E382E02D21679AC
:1048F000F60703D0002004B0BDE8F081566906B188
:10490000B708D2F808C0BCF1000F0DD0D5685C2DF7
:1049100018D312693AB136B18DE806103A462146ED
:1049200001F001FC03900DE0D6685EB912694AB946
:1049300003AACDE90012BAB2214601F0C7FB012853
:1049400000D003950398D6E7800000202DE9F041C0
:10495000134C0F46054666692068001D00F068FC90
:10496000681C07D137B12168BDE8F0410D48091D29
:1049700000F0C0BC20683544B5424560216805D2CE
:10498000A068091DBDE8F04100F09CBC6068091DED
:1049900000F098FC206B854200D22563BDE8F081D1
:1049A00030000020880C00202DE9F041054600F081
:1049B000ADFC2D4C2D4F2069401C2061206810B1AA
:1049C000E06930B32BE025602069012827D100265B
:1049D00006EB860007EB800000F066FC761C382EA4
:1049E000F6D3234800F060FC2148143000F05CFC52
:1049F0001F48283000F058FC1D483C3000F054FCA3
:104A00001B48503000F050FC194860601430A06022
:104A100005E0E86A2168C96A814200D82560E06A39
:104A2000401CE0626864E86AA169884200D9A0611C
:104A300000EB8000291D07EB800000F05BFC00F01C
:104A400089FCE06900280CD02068E96AC06A8842C5
:104A500007D208494FF080500860BFF34F8FBFF373
:104A60006F8FBDE8F081000030000020D8070020E3
:104A7000380C002004ED00E038B500F047FC104C85
:104A8000A068C8B90F4800F00FFC0E48143000F0C1
:104A90000BFC0C49002021601431616001F114030A
:104AA000009001F1640210210A2001F031F8A060A9
:104AB00010B105A100F0D6FCBDE8384000F04ABCBA
:104AC0006C0000209C0C0020546D7251000000000E
:104AD00030B4026C0B46002A0BD0D0E902411144DD
:104AE000C160A14201D30168C160184630BCFBF728
:104AF00064BD30BC70472DE9F041856B1746026CF0
:104B00000446002682B1C7B1E068FBF756FDE168B4
:104B1000206C2268091AE160914202D2A168081A49
:104B2000E060022F16D017E02068A8B9A06801F055
:104B3000A3FB06460020A0600EE06068FBF73DFD89
:104B4000D4E90101226C10446060884204D32068DB
:104B5000606001E005B16D1E6D1CA5633046BDE8C7
:104B6000F08110B5044690F8590068B101280ED0C4
:104B7000022811D0502072B680F31188BFF34F8FF6
:104B8000BFF36F8F62B6FEE7206B00F0F9FB2046A3
:104B9000BDE8104000F0F4BB10BD000011484FF418
:104BA000705110B5420706D00E49C01D20F0070015
:104BB000411AC1F570510C4C002301440839A4F18D
:104BC000100221F00701C4E900030C1A11604B60C8
:104BD0000B60C0E9001494604FF000415460D16054
:104BE00010BD00006C1A002094000020144E4FF0FD
:104BF0008058144CDFF85090A6F29C4712E000BF9A
:104C000000F084FBF068C568281D00F011FB2069E6
:104C1000401E2061E068401EE06000F09BFB2846DB
:104C2000FFF79FFFE0680028EAD138680128F9D92A
:104C3000C9F80080BFF34F8FBFF36F8FF2E700001A
:104C4000740C00203000002004ED00E070B51D461B
:104C5000049C51B1C4F80020C4E90F010121204691
:104C600000F092FF84F84C5070BD2460F4E72DE909
:104C7000F05F88469A4691001546DDE90B940A9E3E
:104C8000A5228346206BFBF7DDFC206B6FF0030150
:104C900001EB8501084420F00707780709D0502070
:104CA00072B680F31188BFF34F8FBFF36F8F62B678
:104CB000FEE7B8F1000F4FF000050ED000202218DB
:104CC00018F8001082F8341018F8001011B1401CC8
:104CD0001028F4D384F8435001E084F83450382E7F
:104CE00000D33726E662201DC4E9136500F0E7FA19
:104CF00004F1180000F0E3FA6565C6F13800A06120
:104D000084F858505246246159463846646200F08F
:104D100077FAB9F1000F206001D0C9F80040BDE872
:104D2000F09F000030B5114900E011460A68824248
:104D3000FBD34B685C18844203D144680846234483
:104D40004B6043681D18954209D1084C103C2468FB
:104D5000A24209D052681A4442600A68126802608E
:104D6000814200D0086030BD0460F9E79400002063
:104D700070B50D4D914241604FF00004006106D8BE
:104D80008169D21A8A4206D2011D686807E09A42F8
:104D900003D2994201D3012403E0011D286800F0E9
:104DA00091FA204670BD00006C00002010B504464A
:104DB00000F0ACFAA06B28B15FF0000400F0CAFA72
:104DC000204610BD0124F9E730B53E4D89B06FE0B3
:104DD0000498002806DA059ADDE906019047049850
:104DE000002865DB069C606910B1201D00F020FAE8
:104DF00003A800F0DBF8024604980A2858D2DFE83E
:104E000000F00505052F324B05052F3294F82800D8
:104E100040F0010084F82800A06905990B46014480
:104E20002046FFF7A5FF60B3216A2046884794F823
:104E3000280040073CD50020009005980023A16978
:104E400042181946204601F029FBD0B9502072B60D
:104E500080F31188BFF34F8FBFF36F8F62B6FEE709
:104E600094F8280020E094F8280040F0010084F82D
:104E700028000598A06128B1811813462046FFF745
:104E800077FF15E0502072B680F31188BFF34F8F83
:104E9000BFF36F8F62B6FEE794F82800810703D452
:104EA000204600F06DFA03E020F0010084F82800AD
:104EB000A868002204A900F0D1FF002888D109B019
:104EC00030BD00006C0000202DE9FC410F46054676
:104ED00000F01CFC01A800F069F80446019818B124
:104EE00001F046FABDE8FC81264EAFB1706800685B
:104EF000E0B30027B068291B3A4600F0C7FA01F07A
:104F000037FA0028EED120494FF080500860BFF3F7
:104F10004F8FBFF36F8FE5E7A542EBD801F028FA7A
:104F200030682746C068C468201D00F081F994F8F5
:104F3000280041071BD5A0692B463A464119204657
:104F4000FFF716FFB8B100202A460346014600903D
:104F5000204601F0A3FA70B9502072B680F3118890
:104F6000BFF34F8FBFF36F8F62B6FEE707E020F00D
:104F7000010084F82800216A20468847B2E701270B
:104F8000B8E700006C00002004ED00E0064841682E
:104F9000096829B14168C968C968496801637047EF
:104FA0004FF0FF31FAE700003000002070B50546F1
:104FB00001F0F6F8064E04463069844203D200F050
:104FC00009F8012000E0002028602046346170BD0F
:104FD0006C000020F8B51A4D20E0C068C46806686F
:104FE000201D00F025F9216A2046884794F8280002
:104FF000400713D5A0693044B04206D92461211D71
:105000006060286800F05EF908E000203246034640
:1050100001460090204601F041FA38B12868016845
:105020000029DAD16968C5E90010F8BD502072B6D0
:1050300080F31188BFF34F8FBFF36F8F62B6FEE727
:105040006C0000200A484068401C4FF0500072B6C7
:1050500080F3118805D0BFF34F8FBFF36F8F62B617
:10506000FEE7BFF34F8FBFF36F8F62B6FEE700001E
:105070009C000020002A4FF0000202D0814302D0A1
:1050800002E0084200D0012210467047074C206819
:10509000016841B1C0680021D0F80000FFF714FF9B
:1050A000FFF792FEF3E701210020F7E76C000020F4
:1050B0002DE9F041044600F029F994F9455004F136
:1050C000240609E0606A48B1304601F017F908B1DA
:1050D00000F02EFA6D1E6DB2002DF3DC4FF0FF369E
:1050E00084F8456000F036F900F010F994F9445066
:1050F00004F1100709E0206948B1384601F0FEF8D4
:1051000008B100F015FA6D1E6DB2002DF3DC84F8C5
:105110004460BDE8F04100F01DB900002DE9F04108
:105120000027044600F0F2FA344E306808B9FFF761
:1051300035FDF06804424FD1E4B30834600710D065
:1051400004F00700C0F108000444600709D05020B3
:1051500072B680F31188BFF34F8FBFF36F8F62B6C3
:10516000FEE73CB37068844236D8244810300146CC
:105170000D6801E028460D466968A14202D22968FF
:105180000029F7D131688D4226D00768296801606F
:1051900008376868011B102911D9281942070AD05D
:1051A000502072B680F31188BFF34F8FBFF36F8F1B
:1051B00062B6FEE710E041606C60FFF7B3FD69681E
:1051C0007068401A7060B268904200D2B0600020EF
:1051D000F2681143C5E9000101F0CAF8780709D067
:1051E000502072B680F31188BFF34F8FBFF36F8FDB
:1051F00062B6FEE73846BDE8F0810000840000207A
:1052000070B5041F094E231F4FF0807521F0010176
:1052100025601C1F1960A0F120010B1F2660443877
:105220000A606FF002051D6070BD00004550000867
:10523000D0E9013201699A60D0E901235A604A68D5
:10524000824201D182684A60002202610868401EE1
:105250000860086870470000044801680368026835
:105260008869DB6AC3F13801916170473000002022
:1052700010B5044C4FF48073046004F15C000860C6
:10528000136010BDB40D002010B5044C4FF4007332
:10529000046004F15C000860136010BD101200206F
:1052A00000F070BA00F0CEBA4FF0FF3300F1080101
:1052B0000022C0E901130260C16001617047002152
:1052C0000161704730B50B685A1C02D000F108022A
:1052D00002E0026904E02246546825689D42FAD93A
:1052E00053684B6099608A60516008610168491C8D
:1052F000016030BD42684A6093688B609368596072
:10530000916008610168491C01607047502072B6C5
:1053100080F31188BFF34F8FBFF36F8F0B4962B6D5
:105320004868401C486001280ED10948006810F008
:10533000FF0F09D0502072B680F31188BFF34F8F52
:10534000BFF36F8F62B6FEE7704700009C0000203D
:1053500004ED00E00949486828B1401E486001D1C9
:1053600080F311887047502072B680F31188BFF324
:105370004F8FBFF36F8F62B6FEE700009C000020E6
:1053800070B500282BD0164DA0F108046068E968BC
:10539000084209D1502072B680F31188BFF34F8FB5
:1053A000BFF36F8F62B6FEE722684AB1502072B633
:1053B00080F31188BFF34F8FBFF36F8F62B6FEE7A4
:1053C0008843606000F0A2F960686968084468601A
:1053D0002046FFF7A7FCBDE8704000F0C9BF70BDD4
:1053E000840000204FF0E020002101614FF47A7228
:1053F0008161072303490968B1FBF2F1491E41614C
:10540000036170472C00002010B5FAF797FF13498D
:10541000102810D300F1E0200A7890F8F0039042B1
:1054200009D2502072B680F31188BFF34F8FBFF3BB
:105430006F8F62B6FEE70A488968006800F4E06092
:10544000884209D9502072B680F31188BFF34F8F7C
:10545000BFF36F8F62B6FEE710BD00009C00002016
:105460000CED00E0084B5FF0000210B553F832403D
:105470001CB1521C082AF9D310BD03EBC20443F837
:105480003210606010BD00009807002070B515460E
:105490000E460446FFF73AFF94F944100020491CD9
:1054A00001D184F8440094F94510491C01D184F8D5
:1054B0004500FFF74FFFA06B28B904F124002A46EE
:1054C000314600F055F82046BDE87040FFF7F0BDCA
:1054D000020010B516D01048806B48B1502072B64B
:1054E00080F31188BFF34F8FBFF36F8F62B6FEE773
:1054F00000F00CF900211046FFF728FA00F038FF01
:10550000002807D105494FF080500860BFF34F8F46
:10551000BFF36F8F10BD00003000002004ED00E0ED
:1055200002498A6A02604969416070473000002080
:1055300001490120486270473000002010B50C4638
:1055400050B10A4909681831FFF7BCFE2046BDE892
:1055500010400121FFF7FAB9502072B680F311888C
:10556000BFF34F8FBFF36F8F62B6FEE730000020AE
:1055700070B514460D4668B10B4909681831FFF73C
:10558000B9FE0CB14FF0FF3521462846BDE870400A
:10559000FFF7DCB9502072B680F31188BFF34F8F4C
:1055A000BFF36F8F62B6FEE73000002010B5030036
:1055B000144611D01248826BC2B1026841F000411A
:1055C0009161016818461831FFF794FE2046BDE846
:1055D00010400121FFF7BAB9502072B680F311884C
:1055E000BFF34F8FBFF36F8F62B6FEE7502072B6E6
:1055F00080F31188BFF34F8FBFF36F8F62B6FEE762
:105600003000002070B51B4DAA6BF2B1C46841F0A8
:10561000004101601CB3FFF70BFE201DFFF708FEE1
:10562000E06AA969884200D9A86100EB80001249AC
:1056300001EB8000211DFFF75DFEE06A2968C96A61
:10564000884201D90120686270BD502072B680F393
:105650001188BFF34F8FBFF36F8F62B6FEE7502004
:1056600072B680F31188BFF34F8FBFF36F8F62B6AE
:10567000FEE7000030000020D807002030B587B0DA
:10568000002405AA04A9039403A80494FFF7F0FDDD
:10569000DDE9030100940023CDE90110194817A1A9
:1056A000059A00F040FD184D0028686323D000F0F3
:1056B000C3FE01280BD0401C1DD1502072B680F3D0
:1056C0001188BFF34F8FBFF36F8F62B6FEE7502094
:1056D00072B680F31188BFF34F8FBFF36F8F62B63E
:1056E00001214FF0FF302863E9616C6107B0BDE82C
:1056F000304000F087B907B030BD000049444C4548
:1057000000000000ED4B0008300000200248816BD3
:10571000491C81637047000030000020174810B515
:10572000816B11B10121416210BD00214162144A17
:10573000816901E0B9B1491E01EB810352F82330C0
:10574000002BF7D001EB810302EB830202F1080486
:1057500053685B685360A34201D15B685360DA68A9
:105760000260816110BD502072B680F31188BFF3D2
:105770004F8FBFF36F8F62B6FEE70000300000204E
:10578000D807002070B50E46054658B1300E13D02C
:10579000502072B680F31188BFF34F8FBFF36F8F25
:1057A00062B6FEE7502072B680F31188BFF34F8FC8
:1057B000BFF36F8F62B6FEE7FFF7A8FD2C6824EAFF
:1057C00006002860FFF7C6FD204670BD0A46014668
:1057D0000148002300F098BEA152000870B52020B7
:1057E000FFF79CFC040005D000252560201DFFF775
:1057F0005BFD2577204670BD38B550B120210446A9
:105800000091002102C0FFF74FFD012020772046C4
:1058100038BD502072B680F31188BFF34F8FBFF3AD
:105820006F8F62B6FEE75022EFF3118172B682F3FA
:105830001188BFF34F8FBFF36F8F62B6006881F39B
:10584000118870472DE9F041884604464FF0000763
:1058500060B15FEA186013D0502072B680F31188EF
:10586000BFF34F8FBFF36F8F62B6FEE7502072B663
:1058700080F31188BFF34F8FBFF36F8F62B6FEE7DF
:10588000261D04F10C05FFF741FF2168F06841EA8D
:105890000801216018E000BFD0E9001601F07F4246
:1058A00021F07F415301236802D40B4203D10AE067
:1058B00031EA030307D1D20100D50F43216841F03B
:1058C0000071FFF79FFE3046A842E5D12068B8433B
:1058D000206000F04DFD2068BDE8F08113460A46C7
:1058E0000146014800F010BEA55200082DE9F0471E
:1058F0009A4690460D460446DDF820904FF000078A
:1059000058B1280E13D0502072B680F31188BFF31F
:105910004F8FBFF36F8F62B6FEE7502072B680F3F1
:105920001188BFF34F8FBFF36F8F62B6FEE71DB1D3
:1059300000F028FC50B116E0502072B680F31188B8
:10594000BFF34F8FBFF36F8F62B6FEE7B9F1000F61
:1059500009D0502072B680F31188BFF34F8FBFF388
:105960006F8F62B6FEE7FFF7D1FE266852462946E2
:105970003046FFF77FFB30B1B8F1000F1AD0206836
:10598000A843206016E0B9F1000F13D0B8F1000F62
:1059900001D04FF08077BAF1000F01D047F0806757
:1059A0004A46201D45EA0701FFF700FE00F0E0FC33
:1059B00018B10AE000F0DCFC1FE011494FF0805004
:1059C0000860BFF34F8FBFF36F8FFFF745FC0646AC
:1059D000800110D4FFF79AFC2668524629463046CB
:1059E000FFF748FB28B1B8F1000F02D02068A843A8
:1059F0002060FFF7AFFC26F07F463046BDE8F08719
:105A000004ED00E02B49FF201CB50A7801920870D4
:105A100008788DF800009DF800209DF8000002F045
:105A2000F002824209D0502072B680F31188BFF391
:105A30004F8FBFF36F8F62B6FEE79DF800200720FF
:105A40001D4C02F050022270A06005E09DF800207D
:105A500052008DF80020401E9DF800201206F5D45B
:105A60000328A06009D0502072B680F31188BFF3DC
:105A70004F8FBFF36F8F62B6FEE74FF44070A060A8
:105A8000019808700D48016841F4700101600168D7
:105A900041F070410160FFF7A5FC00206060FAF75B
:105AA00013FC0748016841F040410160FAF7F8FB38
:105AB00000201CBD00E400E09C00002020ED00E080
:105AC00034EF00E0F8B5050017460E4614D0EEB1ED
:105AD00005FB06F05030FFF721FB04000AD0002040
